{
  "contractName": "TasksContract",
  "abi": [
    {
      "inputs": [],
      "stateMutability": "nonpayable",
      "type": "constructor"
    },
    {
      "anonymous": false,
      "inputs": [
        {
          "indexed": false,
          "internalType": "uint256",
          "name": "id",
          "type": "uint256"
        },
        {
          "indexed": false,
          "internalType": "string",
          "name": "title",
          "type": "string"
        },
        {
          "indexed": false,
          "internalType": "string",
          "name": "description",
          "type": "string"
        },
        {
          "indexed": false,
          "internalType": "bool",
          "name": "done",
          "type": "bool"
        },
        {
          "indexed": false,
          "internalType": "uint256",
          "name": "createdAt",
          "type": "uint256"
        }
      ],
      "name": "TaskCreated",
      "type": "event"
    },
    {
      "anonymous": false,
      "inputs": [
        {
          "indexed": false,
          "internalType": "uint256",
          "name": "id",
          "type": "uint256"
        },
        {
          "indexed": false,
          "internalType": "bool",
          "name": "done",
          "type": "bool"
        }
      ],
      "name": "TaskToggleDone",
      "type": "event"
    },
    {
      "inputs": [],
      "name": "taskCounter",
      "outputs": [
        {
          "internalType": "uint256",
          "name": "",
          "type": "uint256"
        }
      ],
      "stateMutability": "view",
      "type": "function",
      "constant": true
    },
    {
      "inputs": [
        {
          "internalType": "uint256",
          "name": "",
          "type": "uint256"
        }
      ],
      "name": "tasks",
      "outputs": [
        {
          "internalType": "uint256",
          "name": "id",
          "type": "uint256"
        },
        {
          "internalType": "string",
          "name": "title",
          "type": "string"
        },
        {
          "internalType": "string",
          "name": "description",
          "type": "string"
        },
        {
          "internalType": "bool",
          "name": "done",
          "type": "bool"
        },
        {
          "internalType": "uint256",
          "name": "createdAt",
          "type": "uint256"
        }
      ],
      "stateMutability": "view",
      "type": "function",
      "constant": true
    },
    {
      "inputs": [
        {
          "internalType": "string",
          "name": "_title",
          "type": "string"
        },
        {
          "internalType": "string",
          "name": "_description",
          "type": "string"
        }
      ],
      "name": "createTask",
      "outputs": [],
      "stateMutability": "nonpayable",
      "type": "function"
    },
    {
      "inputs": [
        {
          "internalType": "uint256",
          "name": "_id",
          "type": "uint256"
        }
      ],
      "name": "toggleDone",
      "outputs": [],
      "stateMutability": "nonpayable",
      "type": "function"
    }
  ],
  "bytecode": "0x6080604052600080553480156200001557600080fd5b50620000926040518060400160405280601781526020017f5072696d657220746172656120646520656a656d706c6f0000000000000000008152506040518060400160405280601e81526020017f486163657220616c676f20646520746172656120646520656a656d706c6f00008152506200009860201b60201c565b62000695565b6001600080828254620000ac9190620001db565b925050819055506040518060a00160405280600054815260200183815260200182815260200160001515815260200142815250600160008054815260200190815260200160002060008201518160000155602082015181600101908162000114919062000486565b5060408201518160020190816200012c919062000486565b5060608201518160030160006101000a81548160ff021916908315150217905550608082015181600401559050507f6549102bed7d1bb5ec529ee14e2ca60ffc1f47f66d4cc6ca713220613cc64c256000548383600042604051620001969594939291906200062a565b60405180910390a15050565b6000819050919050565b7f4e487b7100000000000000000000000000000000000000000000000000000000600052601160045260246000fd5b6000620001e882620001a2565b9150620001f583620001a2565b925082820190508082111562000210576200020f620001ac565b5b92915050565b600081519050919050565b7f4e487b7100000000000000000000000000000000000000000000000000000000600052604160045260246000fd5b7f4e487b7100000000000000000000000000000000000000000000000000000000600052602260045260246000fd5b600060028204905060018216806200029857607f821691505b602082108103620002ae57620002ad62000250565b5b50919050565b60008190508160005260206000209050919050565b60006020601f8301049050919050565b600082821b905092915050565b600060088302620003187fffffffffffffffffffffffffffffffffffffffffffffffffffffffffffffffff82620002d9565b620003248683620002d9565b95508019841693508086168417925050509392505050565b6000819050919050565b600062000367620003616200035b84620001a2565b6200033c565b620001a2565b9050919050565b6000819050919050565b620003838362000346565b6200039b62000392826200036e565b848454620002e6565b825550505050565b600090565b620003b2620003a3565b620003bf81848462000378565b505050565b5b81811015620003e757620003db600082620003a8565b600181019050620003c5565b5050565b601f82111562000436576200040081620002b4565b6200040b84620002c9565b810160208510156200041b578190505b620004336200042a85620002c9565b830182620003c4565b50505b505050565b600082821c905092915050565b60006200045b600019846008026200043b565b1980831691505092915050565b600062000476838362000448565b9150826002028217905092915050565b620004918262000216565b67ffffffffffffffff811115620004ad57620004ac62000221565b5b620004b982546200027f565b620004c6828285620003eb565b600060209050601f831160018114620004fe5760008415620004e9578287015190505b620004f5858262000468565b86555062000565565b601f1984166200050e86620002b4565b60005b82811015620005385784890151825560018201915060208501945060208101905062000511565b8683101562000558578489015162000554601f89168262000448565b8355505b6001600288020188555050505b505050505050565b6200057881620001a2565b82525050565b600082825260208201905092915050565b60005b83811015620005af57808201518184015260208101905062000592565b60008484015250505050565b6000601f19601f8301169050919050565b6000620005d98262000216565b620005e581856200057e565b9350620005f78185602086016200058f565b6200060281620005bb565b840191505092915050565b60008115159050919050565b62000624816200060d565b82525050565b600060a0820190506200064160008301886200056d565b8181036020830152620006558187620005cc565b905081810360408301526200066b8186620005cc565b90506200067c606083018562000619565b6200068b60808301846200056d565b9695505050505050565b610c7280620006a56000396000f3fe608060405234801561001057600080fd5b506004361061004c5760003560e01c8063292a458514610051578063586717301461006d5780638d9776721461008b578063d81ef739146100bf575b600080fd5b61006b600480360381019061006691906106d2565b6100db565b005b6100756101dd565b6040516100829190610763565b60405180910390f35b6100a560048036038101906100a091906107aa565b6101e3565b6040516100b6959493929190610871565b60405180910390f35b6100d960048036038101906100d491906107aa565b610336565b005b60016000808282546100ed9190610901565b925050819055506040518060a0016040528060005481526020018381526020018281526020016000151581526020014281525060016000805481526020019081526020016000206000820151816000015560208201518160010190816101539190610b41565b5060408201518160020190816101699190610b41565b5060608201518160030160006101000a81548160ff021916908315150217905550608082015181600401559050507f6549102bed7d1bb5ec529ee14e2ca60ffc1f47f66d4cc6ca713220613cc64c2560005483836000426040516101d1959493929190610871565b60405180910390a15050565b60005481565b600160205280600052604060002060009150905080600001549080600101805461020c90610964565b80601f016020809104026020016040519081016040528092919081815260200182805461023890610964565b80156102855780601f1061025a57610100808354040283529160200191610285565b820191906000526020600020905b81548152906001019060200180831161026857829003601f168201915b50505050509080600201805461029a90610964565b80601f01602080910402602001604051908101604052809291908181526020018280546102c690610964565b80156103135780601f106102e857610100808354040283529160200191610313565b820191906000526020600020905b8154815290600101906020018083116102f657829003601f168201915b5050505050908060030160009054906101000a900460ff16908060040154905085565b6000600160008381526020019081526020016000206040518060a00160405290816000820154815260200160018201805461037090610964565b80601f016020809104026020016040519081016040528092919081815260200182805461039c90610964565b80156103e95780601f106103be576101008083540402835291602001916103e9565b820191906000526020600020905b8154815290600101906020018083116103cc57829003601f168201915b5050505050815260200160028201805461040290610964565b80601f016020809104026020016040519081016040528092919081815260200182805461042e90610964565b801561047b5780601f106104505761010080835404028352916020019161047b565b820191906000526020600020905b81548152906001019060200180831161045e57829003601f168201915b505050505081526020016003820160009054906101000a900460ff16151515158152602001600482015481525050905080606001511581606001901515908115158152505080600160008481526020019081526020016000206000820151816000015560208201518160010190816104f39190610b41565b5060408201518160020190816105099190610b41565b5060608201518160030160006101000a81548160ff021916908315150217905550608082015181600401559050507f389dee00d487dd41dd5bf0f43eeaa5b663b3af022d52368df89d388150295f4582826060015160405161056c929190610c13565b60405180910390a15050565b6000604051905090565b600080fd5b600080fd5b600080fd5b600080fd5b6000601f19601f8301169050919050565b7f4e487b7100000000000000000000000000000000000000000000000000000000600052604160045260246000fd5b6105df82610596565b810181811067ffffffffffffffff821117156105fe576105fd6105a7565b5b80604052505050565b6000610611610578565b905061061d82826105d6565b919050565b600067ffffffffffffffff82111561063d5761063c6105a7565b5b61064682610596565b9050602081019050919050565b82818337600083830152505050565b600061067561067084610622565b610607565b90508281526020810184848401111561069157610690610591565b5b61069c848285610653565b509392505050565b600082601f8301126106b9576106b861058c565b5b81356106c9848260208601610662565b91505092915050565b600080604083850312156106e9576106e8610582565b5b600083013567ffffffffffffffff81111561070757610706610587565b5b610713858286016106a4565b925050602083013567ffffffffffffffff81111561073457610733610587565b5b610740858286016106a4565b9150509250929050565b6000819050919050565b61075d8161074a565b82525050565b60006020820190506107786000830184610754565b92915050565b6107878161074a565b811461079257600080fd5b50565b6000813590506107a48161077e565b92915050565b6000602082840312156107c0576107bf610582565b5b60006107ce84828501610795565b91505092915050565b600081519050919050565b600082825260208201905092915050565b60005b838110156108115780820151818401526020810190506107f6565b60008484015250505050565b6000610828826107d7565b61083281856107e2565b93506108428185602086016107f3565b61084b81610596565b840191505092915050565b60008115159050919050565b61086b81610856565b82525050565b600060a0820190506108866000830188610754565b8181036020830152610898818761081d565b905081810360408301526108ac818661081d565b90506108bb6060830185610862565b6108c86080830184610754565b9695505050505050565b7f4e487b7100000000000000000000000000000000000000000000000000000000600052601160045260246000fd5b600061090c8261074a565b91506109178361074a565b925082820190508082111561092f5761092e6108d2565b5b92915050565b7f4e487b7100000000000000000000000000000000000000000000000000000000600052602260045260246000fd5b6000600282049050600182168061097c57607f821691505b60208210810361098f5761098e610935565b5b50919050565b60008190508160005260206000209050919050565b60006020601f8301049050919050565b600082821b905092915050565b6000600883026109f77fffffffffffffffffffffffffffffffffffffffffffffffffffffffffffffffff826109ba565b610a0186836109ba565b95508019841693508086168417925050509392505050565b6000819050919050565b6000610a3e610a39610a348461074a565b610a19565b61074a565b9050919050565b6000819050919050565b610a5883610a23565b610a6c610a6482610a45565b8484546109c7565b825550505050565b600090565b610a81610a74565b610a8c818484610a4f565b505050565b5b81811015610ab057610aa5600082610a79565b600181019050610a92565b5050565b601f821115610af557610ac681610995565b610acf846109aa565b81016020851015610ade578190505b610af2610aea856109aa565b830182610a91565b50505b505050565b600082821c905092915050565b6000610b1860001984600802610afa565b1980831691505092915050565b6000610b318383610b07565b9150826002028217905092915050565b610b4a826107d7565b67ffffffffffffffff811115610b6357610b626105a7565b5b610b6d8254610964565b610b78828285610ab4565b600060209050601f831160018114610bab5760008415610b99578287015190505b610ba38582610b25565b865550610c0b565b601f198416610bb986610995565b60005b82811015610be157848901518255600182019150602085019450602081019050610bbc565b86831015610bfe5784890151610bfa601f891682610b07565b8355505b6001600288020188555050505b505050505050565b6000604082019050610c286000830185610754565b610c356020830184610862565b939250505056fea26469706673582212207e7328620ca71f3843124032f43198f8a3ec6ca9b01188843b487d3bc3c8673764736f6c63430008110033",
  "immutableReferences": {},
  "source": "// SPDX-License-Identifier: MIT\r\npragma solidity ^0.8.17;\r\n\r\ncontract TasksContract {\r\n    uint public taskCounter = 0;\r\n\r\n    constructor () { // Is excecuted the first time to create this contract\r\n        createTask(\"Primer tarea de ejemplo\", \"Hacer algo de tarea de ejemplo\");\r\n    }\r\n\r\n    // Events get the values \r\n    event TaskCreated(  \r\n        uint id,\r\n        string title,\r\n        string description,\r\n        bool done,\r\n        uint createdAt\r\n    );\r\n\r\n    event TaskToggleDone(uint id, bool done);\r\n\r\n    struct Task {\r\n        uint id;\r\n        string title;\r\n        string description;\r\n        bool done;\r\n        uint createdAt; // timestamp\r\n    }\r\n    mapping (uint => Task) public tasks; // list of tasks\r\n\r\n    function createTask(string memory _title, string memory _description) public {\r\n        taskCounter += 1;\r\n        tasks[taskCounter] = Task(taskCounter, _title, _description, false, block.timestamp);\r\n        emit TaskCreated(taskCounter, _title, _description, false, block.timestamp); // Send the events response to the 'contract log'\r\n    }\r\n    \r\n    function toggleDone(uint _id) public {\r\n        Task memory _task = tasks[_id];\r\n        _task.done = !_task.done;\r\n        tasks[_id] = _task; \r\n        emit TaskToggleDone(_id, _task.done);\r\n    }\r\n}",
  "sourcePath": "C:\\Users\\CW\\Documents\\Web\\Solidity\\contractApp\\contracts\\TasksContract.sol",
  "compiler": {
    "name": "solc",
    "version": "0.8.17+commit.8df45f5f.Emscripten.clang"
  },
  "schemaVersion": "3.4.10",
  "updatedAt": "2022-10-19T01:46:07.566Z",
  "networkType": "ethereum",
  "devdoc": {
    "kind": "dev",
    "methods": {},
    "version": 1
  },
  "userdoc": {
    "kind": "user",
    "methods": {},
    "version": 1
  }
}